{
  "_format": "hh-sol-artifact-1",
  "contractName": "nft",
  "sourceName": "contracts/nft.sol",
  "abi": [
    {
      "inputs": [
        {
          "internalType": "address",
          "name": "to",
          "type": "address"
        },
        {
          "internalType": "uint256",
          "name": "tokenId",
          "type": "uint256"
        }
      ],
      "name": "approve",
      "outputs": [],
      "stateMutability": "nonpayable",
      "type": "function"
    },
    {
      "inputs": [],
      "stateMutability": "nonpayable",
      "type": "constructor"
    },
    {
      "inputs": [
        {
          "internalType": "address",
          "name": "sender",
          "type": "address"
        },
        {
          "internalType": "uint256",
          "name": "tokenId",
          "type": "uint256"
        },
        {
          "internalType": "address",
          "name": "owner",
          "type": "address"
        }
      ],
      "name": "ERC721IncorrectOwner",
      "type": "error"
    },
    {
      "inputs": [
        {
          "internalType": "address",
          "name": "operator",
          "type": "address"
        },
        {
          "internalType": "uint256",
          "name": "tokenId",
          "type": "uint256"
        }
      ],
      "name": "ERC721InsufficientApproval",
      "type": "error"
    },
    {
      "inputs": [
        {
          "internalType": "address",
          "name": "approver",
          "type": "address"
        }
      ],
      "name": "ERC721InvalidApprover",
      "type": "error"
    },
    {
      "inputs": [
        {
          "internalType": "address",
          "name": "operator",
          "type": "address"
        }
      ],
      "name": "ERC721InvalidOperator",
      "type": "error"
    },
    {
      "inputs": [
        {
          "internalType": "address",
          "name": "owner",
          "type": "address"
        }
      ],
      "name": "ERC721InvalidOwner",
      "type": "error"
    },
    {
      "inputs": [
        {
          "internalType": "address",
          "name": "receiver",
          "type": "address"
        }
      ],
      "name": "ERC721InvalidReceiver",
      "type": "error"
    },
    {
      "inputs": [
        {
          "internalType": "address",
          "name": "sender",
          "type": "address"
        }
      ],
      "name": "ERC721InvalidSender",
      "type": "error"
    },
    {
      "inputs": [
        {
          "internalType": "uint256",
          "name": "tokenId",
          "type": "uint256"
        }
      ],
      "name": "ERC721NonexistentToken",
      "type": "error"
    },
    {
      "inputs": [],
      "name": "flipSaleState",
      "outputs": [],
      "stateMutability": "nonpayable",
      "type": "function"
    },
    {
      "inputs": [
        {
          "internalType": "uint256",
          "name": "_numTokens",
          "type": "uint256"
        }
      ],
      "name": "mint",
      "outputs": [],
      "stateMutability": "payable",
      "type": "function"
    },
    {
      "inputs": [
        {
          "internalType": "address",
          "name": "owner",
          "type": "address"
        }
      ],
      "name": "OwnableInvalidOwner",
      "type": "error"
    },
    {
      "inputs": [
        {
          "internalType": "address",
          "name": "account",
          "type": "address"
        }
      ],
      "name": "OwnableUnauthorizedAccount",
      "type": "error"
    },
    {
      "anonymous": false,
      "inputs": [
        {
          "indexed": true,
          "internalType": "address",
          "name": "owner",
          "type": "address"
        },
        {
          "indexed": true,
          "internalType": "address",
          "name": "approved",
          "type": "address"
        },
        {
          "indexed": true,
          "internalType": "uint256",
          "name": "tokenId",
          "type": "uint256"
        }
      ],
      "name": "Approval",
      "type": "event"
    },
    {
      "anonymous": false,
      "inputs": [
        {
          "indexed": true,
          "internalType": "address",
          "name": "owner",
          "type": "address"
        },
        {
          "indexed": true,
          "internalType": "address",
          "name": "operator",
          "type": "address"
        },
        {
          "indexed": false,
          "internalType": "bool",
          "name": "approved",
          "type": "bool"
        }
      ],
      "name": "ApprovalForAll",
      "type": "event"
    },
    {
      "anonymous": false,
      "inputs": [
        {
          "indexed": true,
          "internalType": "address",
          "name": "previousOwner",
          "type": "address"
        },
        {
          "indexed": true,
          "internalType": "address",
          "name": "newOwner",
          "type": "address"
        }
      ],
      "name": "OwnershipTransferred",
      "type": "event"
    },
    {
      "inputs": [],
      "name": "renounceOwnership",
      "outputs": [],
      "stateMutability": "nonpayable",
      "type": "function"
    },
    {
      "inputs": [
        {
          "internalType": "address",
          "name": "from",
          "type": "address"
        },
        {
          "internalType": "address",
          "name": "to",
          "type": "address"
        },
        {
          "internalType": "uint256",
          "name": "tokenId",
          "type": "uint256"
        }
      ],
      "name": "safeTransferFrom",
      "outputs": [],
      "stateMutability": "nonpayable",
      "type": "function"
    },
    {
      "inputs": [
        {
          "internalType": "address",
          "name": "from",
          "type": "address"
        },
        {
          "internalType": "address",
          "name": "to",
          "type": "address"
        },
        {
          "internalType": "uint256",
          "name": "tokenId",
          "type": "uint256"
        },
        {
          "internalType": "bytes",
          "name": "data",
          "type": "bytes"
        }
      ],
      "name": "safeTransferFrom",
      "outputs": [],
      "stateMutability": "nonpayable",
      "type": "function"
    },
    {
      "inputs": [
        {
          "internalType": "address",
          "name": "operator",
          "type": "address"
        },
        {
          "internalType": "bool",
          "name": "approved",
          "type": "bool"
        }
      ],
      "name": "setApprovalForAll",
      "outputs": [],
      "stateMutability": "nonpayable",
      "type": "function"
    },
    {
      "inputs": [
        {
          "internalType": "string",
          "name": "_baseUri",
          "type": "string"
        }
      ],
      "name": "setBaseURI",
      "outputs": [],
      "stateMutability": "nonpayable",
      "type": "function"
    },
    {
      "anonymous": false,
      "inputs": [
        {
          "indexed": true,
          "internalType": "address",
          "name": "from",
          "type": "address"
        },
        {
          "indexed": true,
          "internalType": "address",
          "name": "to",
          "type": "address"
        },
        {
          "indexed": true,
          "internalType": "uint256",
          "name": "tokenId",
          "type": "uint256"
        }
      ],
      "name": "Transfer",
      "type": "event"
    },
    {
      "inputs": [
        {
          "internalType": "address",
          "name": "from",
          "type": "address"
        },
        {
          "internalType": "address",
          "name": "to",
          "type": "address"
        },
        {
          "internalType": "uint256",
          "name": "tokenId",
          "type": "uint256"
        }
      ],
      "name": "transferFrom",
      "outputs": [],
      "stateMutability": "nonpayable",
      "type": "function"
    },
    {
      "inputs": [
        {
          "internalType": "address",
          "name": "newOwner",
          "type": "address"
        }
      ],
      "name": "transferOwnership",
      "outputs": [],
      "stateMutability": "nonpayable",
      "type": "function"
    },
    {
      "inputs": [],
      "name": "withdrawAll",
      "outputs": [],
      "stateMutability": "payable",
      "type": "function"
    },
    {
      "inputs": [
        {
          "internalType": "address",
          "name": "owner",
          "type": "address"
        }
      ],
      "name": "balanceOf",
      "outputs": [
        {
          "internalType": "uint256",
          "name": "",
          "type": "uint256"
        }
      ],
      "stateMutability": "view",
      "type": "function"
    },
    {
      "inputs": [],
      "name": "baseExtension",
      "outputs": [
        {
          "internalType": "string",
          "name": "",
          "type": "string"
        }
      ],
      "stateMutability": "view",
      "type": "function"
    },
    {
      "inputs": [],
      "name": "baseUri",
      "outputs": [
        {
          "internalType": "string",
          "name": "",
          "type": "string"
        }
      ],
      "stateMutability": "view",
      "type": "function"
    },
    {
      "inputs": [
        {
          "internalType": "uint256",
          "name": "tokenId",
          "type": "uint256"
        }
      ],
      "name": "getApproved",
      "outputs": [
        {
          "internalType": "address",
          "name": "",
          "type": "address"
        }
      ],
      "stateMutability": "view",
      "type": "function"
    },
    {
      "inputs": [
        {
          "internalType": "address",
          "name": "owner",
          "type": "address"
        },
        {
          "internalType": "address",
          "name": "operator",
          "type": "address"
        }
      ],
      "name": "isApprovedForAll",
      "outputs": [
        {
          "internalType": "bool",
          "name": "",
          "type": "bool"
        }
      ],
      "stateMutability": "view",
      "type": "function"
    },
    {
      "inputs": [],
      "name": "isSaleActive",
      "outputs": [
        {
          "internalType": "bool",
          "name": "",
          "type": "bool"
        }
      ],
      "stateMutability": "view",
      "type": "function"
    },
    {
      "inputs": [],
      "name": "MAX_MINT_PER_TX",
      "outputs": [
        {
          "internalType": "uint256",
          "name": "",
          "type": "uint256"
        }
      ],
      "stateMutability": "view",
      "type": "function"
    },
    {
      "inputs": [],
      "name": "MAX_TOKENS",
      "outputs": [
        {
          "internalType": "uint256",
          "name": "",
          "type": "uint256"
        }
      ],
      "stateMutability": "view",
      "type": "function"
    },
    {
      "inputs": [],
      "name": "name",
      "outputs": [
        {
          "internalType": "string",
          "name": "",
          "type": "string"
        }
      ],
      "stateMutability": "view",
      "type": "function"
    },
    {
      "inputs": [],
      "name": "owner",
      "outputs": [
        {
          "internalType": "address",
          "name": "",
          "type": "address"
        }
      ],
      "stateMutability": "view",
      "type": "function"
    },
    {
      "inputs": [
        {
          "internalType": "uint256",
          "name": "tokenId",
          "type": "uint256"
        }
      ],
      "name": "ownerOf",
      "outputs": [
        {
          "internalType": "address",
          "name": "",
          "type": "address"
        }
      ],
      "stateMutability": "view",
      "type": "function"
    },
    {
      "inputs": [],
      "name": "price",
      "outputs": [
        {
          "internalType": "uint256",
          "name": "",
          "type": "uint256"
        }
      ],
      "stateMutability": "view",
      "type": "function"
    },
    {
      "inputs": [
        {
          "internalType": "bytes4",
          "name": "interfaceId",
          "type": "bytes4"
        }
      ],
      "name": "supportsInterface",
      "outputs": [
        {
          "internalType": "bool",
          "name": "",
          "type": "bool"
        }
      ],
      "stateMutability": "view",
      "type": "function"
    },
    {
      "inputs": [],
      "name": "symbol",
      "outputs": [
        {
          "internalType": "string",
          "name": "",
          "type": "string"
        }
      ],
      "stateMutability": "view",
      "type": "function"
    },
    {
      "inputs": [
        {
          "internalType": "uint256",
          "name": "tokenId",
          "type": "uint256"
        }
      ],
      "name": "tokenURI",
      "outputs": [
        {
          "internalType": "string",
          "name": "",
          "type": "string"
        }
      ],
      "stateMutability": "view",
      "type": "function"
    },
    {
      "inputs": [],
      "name": "totalMinted",
      "outputs": [
        {
          "internalType": "uint256",
          "name": "",
          "type": "uint256"
        }
      ],
      "stateMutability": "view",
      "type": "function"
    },
    {
      "inputs": [],
      "name": "totalSupply",
      "outputs": [
        {
          "internalType": "uint256",
          "name": "",
          "type": "uint256"
        }
      ],
      "stateMutability": "view",
      "type": "function"
    }
  ],
  "bytecode": "0x608060405267011c37937e0800006007556040518060400160405280600581526020017f2e6a736f6e000000000000000000000000000000000000000000000000000000815250600c908162000056919062000fb9565b503480156200006457600080fd5b50336040518060400160405280600481526020017f434f4445000000000000000000000000000000000000000000000000000000008152506040518060400160405280600281526020017f434f0000000000000000000000000000000000000000000000000000000000008152508160009081620000e3919062000fb9565b508060019081620000f5919062000fb9565b505050600073ffffffffffffffffffffffffffffffffffffffff168173ffffffffffffffffffffffffffffffffffffffff16036200016d5760006040517f1e4fbdf7000000000000000000000000000000000000000000000000000000008152600401620001649190620010e5565b60405180910390fd5b6200017e81620001f160201b60201c565b50604051806080016040528060508152602001620045d060509139600b9081620001a9919062000fb9565b506000600190505b60058111620001e257620001cc3382620002b760201b60201c565b8080620001d99062001131565b915050620001b1565b5060056009819055506200135b565b6000600660009054906101000a900473ffffffffffffffffffffffffffffffffffffffff16905081600660006101000a81548173ffffffffffffffffffffffffffffffffffffffff021916908373ffffffffffffffffffffffffffffffffffffffff1602179055508173ffffffffffffffffffffffffffffffffffffffff168173ffffffffffffffffffffffffffffffffffffffff167f8be0079c531659141344cd1fd0a4f28419497f9722a3daafe3b4186f6b6457e060405160405180910390a35050565b620002d9828260405180602001604052806000815250620002dd60201b60201c565b5050565b620002ef83836200030960201b60201c565b6200030460008484846200041060201b60201c565b505050565b600073ffffffffffffffffffffffffffffffffffffffff168273ffffffffffffffffffffffffffffffffffffffff16036200037e5760006040517f64a0ae92000000000000000000000000000000000000000000000000000000008152600401620003759190620010e5565b60405180910390fd5b60006200039483836000620005de60201b60201c565b9050600073ffffffffffffffffffffffffffffffffffffffff168173ffffffffffffffffffffffffffffffffffffffff16146200040b5760006040517f73c6ac6e000000000000000000000000000000000000000000000000000000008152600401620004029190620010e5565b60405180910390fd5b505050565b60008373ffffffffffffffffffffffffffffffffffffffff163b1115620005d8578273ffffffffffffffffffffffffffffffffffffffff1663150b7a026200045d6200081360201b60201c565b8685856040518563ffffffff1660e01b815260040162000481949392919062001229565b6020604051808303816000875af1925050508015620004c057506040513d601f19601f82011682018060405250810190620004bd9190620012df565b60015b6200054a573d8060008114620004f3576040519150601f19603f3d011682016040523d82523d6000602084013e620004f8565b606091505b5060008151036200054257836040517f64a0ae92000000000000000000000000000000000000000000000000000000008152600401620005399190620010e5565b60405180910390fd5b805181602001fd5b63150b7a0260e01b7bffffffffffffffffffffffffffffffffffffffffffffffffffffffff1916817bffffffffffffffffffffffffffffffffffffffffffffffffffffffff191614620005d657836040517f64a0ae92000000000000000000000000000000000000000000000000000000008152600401620005cd9190620010e5565b60405180910390fd5b505b50505050565b600080620005f2846200081b60201b60201c565b9050600073ffffffffffffffffffffffffffffffffffffffff168373ffffffffffffffffffffffffffffffffffffffff16146200063d576200063c8184866200085860201b60201c565b5b600073ffffffffffffffffffffffffffffffffffffffff168173ffffffffffffffffffffffffffffffffffffffff1614620006d757620006886000856000806200092a60201b60201c565b6001600360008373ffffffffffffffffffffffffffffffffffffffff1673ffffffffffffffffffffffffffffffffffffffff168152602001908152602001600020600082825403925050819055505b600073ffffffffffffffffffffffffffffffffffffffff168573ffffffffffffffffffffffffffffffffffffffff16146200075b576001600360008773ffffffffffffffffffffffffffffffffffffffff1673ffffffffffffffffffffffffffffffffffffffff168152602001908152602001600020600082825401925050819055505b846002600086815260200190815260200160002060006101000a81548173ffffffffffffffffffffffffffffffffffffffff021916908373ffffffffffffffffffffffffffffffffffffffff160217905550838573ffffffffffffffffffffffffffffffffffffffff168273ffffffffffffffffffffffffffffffffffffffff167fddf252ad1be2c89b69c2b068fc378daa952ba7f163c4a11628f55a4df523b3ef60405160405180910390a4809150509392505050565b600033905090565b60006002600083815260200190815260200160002060009054906101000a900473ffffffffffffffffffffffffffffffffffffffff169050919050565b6200086b83838362000b0760201b60201c565b6200092557600073ffffffffffffffffffffffffffffffffffffffff168373ffffffffffffffffffffffffffffffffffffffff1603620008e457806040517f7e273289000000000000000000000000000000000000000000000000000000008152600401620008db919062001311565b60405180910390fd5b81816040517f177e802f0000000000000000000000000000000000000000000000000000000081526004016200091c9291906200132e565b60405180910390fd5b505050565b8080620009645750600073ffffffffffffffffffffffffffffffffffffffff168273ffffffffffffffffffffffffffffffffffffffff1614155b1562000aaf5760006200097d8462000bdb60201b60201c565b9050600073ffffffffffffffffffffffffffffffffffffffff168373ffffffffffffffffffffffffffffffffffffffff1614158015620009e957508273ffffffffffffffffffffffffffffffffffffffff168173ffffffffffffffffffffffffffffffffffffffff1614155b801562000a05575062000a03818462000c6e60201b60201c565b155b1562000a4a57826040517fa9fbf51f00000000000000000000000000000000000000000000000000000000815260040162000a419190620010e5565b60405180910390fd5b811562000aad57838573ffffffffffffffffffffffffffffffffffffffff168273ffffffffffffffffffffffffffffffffffffffff167f8c5be1e5ebec7d5bd14f71427d1e84f3dd0314c0f7b2291e5b200ac8c7c3b92560405160405180910390a45b505b836004600085815260200190815260200160002060006101000a81548173ffffffffffffffffffffffffffffffffffffffff021916908373ffffffffffffffffffffffffffffffffffffffff16021790555050505050565b60008073ffffffffffffffffffffffffffffffffffffffff168373ffffffffffffffffffffffffffffffffffffffff161415801562000bd257508273ffffffffffffffffffffffffffffffffffffffff168473ffffffffffffffffffffffffffffffffffffffff16148062000b8a575062000b89848462000c6e60201b60201c565b5b8062000bd157508273ffffffffffffffffffffffffffffffffffffffff1662000bb98362000d0260201b60201c565b73ffffffffffffffffffffffffffffffffffffffff16145b5b90509392505050565b60008062000bef836200081b60201b60201c565b9050600073ffffffffffffffffffffffffffffffffffffffff168173ffffffffffffffffffffffffffffffffffffffff160362000c6557826040517f7e27328900000000000000000000000000000000000000000000000000000000815260040162000c5c919062001311565b60405180910390fd5b80915050919050565b6000600560008473ffffffffffffffffffffffffffffffffffffffff1673ffffffffffffffffffffffffffffffffffffffff16815260200190815260200160002060008373ffffffffffffffffffffffffffffffffffffffff1673ffffffffffffffffffffffffffffffffffffffff16815260200190815260200160002060009054906101000a900460ff16905092915050565b60006004600083815260200190815260200160002060009054906101000a900473ffffffffffffffffffffffffffffffffffffffff169050919050565b600081519050919050565b7f4e487b7100000000000000000000000000000000000000000000000000000000600052604160045260246000fd5b7f4e487b7100000000000000000000000000000000000000000000000000000000600052602260045260246000fd5b6000600282049050600182168062000dc157607f821691505b60208210810362000dd75762000dd662000d79565b5b50919050565b60008190508160005260206000209050919050565b60006020601f8301049050919050565b600082821b905092915050565b60006008830262000e417fffffffffffffffffffffffffffffffffffffffffffffffffffffffffffffffff8262000e02565b62000e4d868362000e02565b95508019841693508086168417925050509392505050565b6000819050919050565b6000819050919050565b600062000e9a62000e9462000e8e8462000e65565b62000e6f565b62000e65565b9050919050565b6000819050919050565b62000eb68362000e79565b62000ece62000ec58262000ea1565b84845462000e0f565b825550505050565b600090565b62000ee562000ed6565b62000ef281848462000eab565b505050565b5b8181101562000f1a5762000f0e60008262000edb565b60018101905062000ef8565b5050565b601f82111562000f695762000f338162000ddd565b62000f3e8462000df2565b8101602085101562000f4e578190505b62000f6662000f5d8562000df2565b83018262000ef7565b50505b505050565b600082821c905092915050565b600062000f8e6000198460080262000f6e565b1980831691505092915050565b600062000fa9838362000f7b565b9150826002028217905092915050565b62000fc48262000d3f565b67ffffffffffffffff81111562000fe05762000fdf62000d4a565b5b62000fec825462000da8565b62000ff982828562000f1e565b600060209050601f8311600181146200103157600084156200101c578287015190505b62001028858262000f9b565b86555062001098565b601f198416620010418662000ddd565b60005b828110156200106b5784890151825560018201915060208501945060208101905062001044565b868310156200108b578489015162001087601f89168262000f7b565b8355505b6001600288020188555050505b505050505050565b600073ffffffffffffffffffffffffffffffffffffffff82169050919050565b6000620010cd82620010a0565b9050919050565b620010df81620010c0565b82525050565b6000602082019050620010fc6000830184620010d4565b92915050565b7f4e487b7100000000000000000000000000000000000000000000000000000000600052601160045260246000fd5b60006200113e8262000e65565b91507fffffffffffffffffffffffffffffffffffffffffffffffffffffffffffffffff820362001173576200117262001102565b5b600182019050919050565b620011898162000e65565b82525050565b600081519050919050565b600082825260208201905092915050565b60005b83811015620011cb578082015181840152602081019050620011ae565b60008484015250505050565b6000601f19601f8301169050919050565b6000620011f5826200118f565b6200120181856200119a565b935062001213818560208601620011ab565b6200121e81620011d7565b840191505092915050565b6000608082019050620012406000830187620010d4565b6200124f6020830186620010d4565b6200125e60408301856200117e565b8181036060830152620012728184620011e8565b905095945050505050565b600080fd5b60007fffffffff0000000000000000000000000000000000000000000000000000000082169050919050565b620012b98162001282565b8114620012c557600080fd5b50565b600081519050620012d981620012ae565b92915050565b600060208284031215620012f857620012f76200127d565b5b60006200130884828501620012c8565b91505092915050565b60006020820190506200132860008301846200117e565b92915050565b6000604082019050620013456000830185620010d4565b6200135460208301846200117e565b9392505050565b613265806200136b6000396000f3fe6080604052600436106101b75760003560e01c80638da5cb5b116100ec578063a2309ff81161008a578063c87b56dd11610064578063c87b56dd146105a8578063e985e9c5146105e5578063f2fde38b14610622578063f47c84c51461064b576101b7565b8063a2309ff814610529578063b88d4fde14610554578063c66828621461057d576101b7565b80639abc8320116100c65780639abc83201461048e578063a035b1fe146104b9578063a0712d68146104e4578063a22cb46514610500576101b7565b80638da5cb5b1461040d5780638ecad7211461043857806395d89b4114610463576101b7565b806342842e0e116101595780636352211e116101335780636352211e1461037257806370a08231146103af578063715018a6146103ec578063853828b614610403576101b7565b806342842e0e146102f557806355f804b31461031e578063564566a814610347576101b7565b8063095ea7b311610195578063095ea7b31461026157806318160ddd1461028a57806323b872dd146102b557806334918dfd146102de576101b7565b806301ffc9a7146101bc57806306fdde03146101f9578063081812fc14610224575b600080fd5b3480156101c857600080fd5b506101e360048036038101906101de91906121d2565b610676565b6040516101f0919061221a565b60405180910390f35b34801561020557600080fd5b5061020e610758565b60405161021b91906122c5565b60405180910390f35b34801561023057600080fd5b5061024b6004803603810190610246919061231d565b6107ea565b604051610258919061238b565b60405180910390f35b34801561026d57600080fd5b50610288600480360381019061028391906123d2565b610806565b005b34801561029657600080fd5b5061029f61081c565b6040516102ac9190612421565b60405180910390f35b3480156102c157600080fd5b506102dc60048036038101906102d7919061243c565b610822565b005b3480156102ea57600080fd5b506102f3610924565b005b34801561030157600080fd5b5061031c6004803603810190610317919061243c565b610958565b005b34801561032a57600080fd5b50610345600480360381019061034091906125c4565b610978565b005b34801561035357600080fd5b5061035c610993565b604051610369919061221a565b60405180910390f35b34801561037e57600080fd5b506103996004803603810190610394919061231d565b6109a6565b6040516103a6919061238b565b60405180910390f35b3480156103bb57600080fd5b506103d660048036038101906103d1919061260d565b6109b8565b6040516103e39190612421565b60405180910390f35b3480156103f857600080fd5b50610401610a72565b005b61040b610a86565b005b34801561041957600080fd5b50610422610b4a565b60405161042f919061238b565b60405180910390f35b34801561044457600080fd5b5061044d610b74565b60405161045a9190612421565b60405180910390f35b34801561046f57600080fd5b50610478610b79565b60405161048591906122c5565b60405180910390f35b34801561049a57600080fd5b506104a3610c0b565b6040516104b091906122c5565b60405180910390f35b3480156104c557600080fd5b506104ce610c99565b6040516104db9190612421565b60405180910390f35b6104fe60048036038101906104f9919061231d565b610c9f565b005b34801561050c57600080fd5b5061052760048036038101906105229190612666565b610f11565b005b34801561053557600080fd5b5061053e610f27565b60405161054b9190612421565b60405180910390f35b34801561056057600080fd5b5061057b60048036038101906105769190612747565b610f79565b005b34801561058957600080fd5b50610592610f96565b60405161059f91906122c5565b60405180910390f35b3480156105b457600080fd5b506105cf60048036038101906105ca919061231d565b611024565b6040516105dc91906122c5565b60405180910390f35b3480156105f157600080fd5b5061060c600480360381019061060791906127ca565b611103565b604051610619919061221a565b60405180910390f35b34801561062e57600080fd5b506106496004803603810190610644919061260d565b611197565b005b34801561065757600080fd5b5061066061121d565b60405161066d9190612421565b60405180910390f35b60007f80ac58cd000000000000000000000000000000000000000000000000000000007bffffffffffffffffffffffffffffffffffffffffffffffffffffffff1916827bffffffffffffffffffffffffffffffffffffffffffffffffffffffff1916148061074157507f5b5e139f000000000000000000000000000000000000000000000000000000007bffffffffffffffffffffffffffffffffffffffffffffffffffffffff1916827bffffffffffffffffffffffffffffffffffffffffffffffffffffffff1916145b80610751575061075082611223565b5b9050919050565b60606000805461076790612839565b80601f016020809104026020016040519081016040528092919081815260200182805461079390612839565b80156107e05780601f106107b5576101008083540402835291602001916107e0565b820191906000526020600020905b8154815290600101906020018083116107c357829003601f168201915b5050505050905090565b60006107f58261128d565b506107ff82611315565b9050919050565b6108188282610813611352565b61135a565b5050565b60095481565b600073ffffffffffffffffffffffffffffffffffffffff168273ffffffffffffffffffffffffffffffffffffffff16036108945760006040517f64a0ae9200000000000000000000000000000000000000000000000000000000815260040161088b919061238b565b60405180910390fd5b60006108a883836108a3611352565b61136c565b90508373ffffffffffffffffffffffffffffffffffffffff168173ffffffffffffffffffffffffffffffffffffffff161461091e578382826040517f64283d7b0000000000000000000000000000000000000000000000000000000081526004016109159392919061286a565b60405180910390fd5b50505050565b61092c611586565b600860009054906101000a900460ff1615600860006101000a81548160ff021916908315150217905550565b61097383838360405180602001604052806000815250610f79565b505050565b610980611586565b80600b908161098f9190612a4d565b5050565b600860009054906101000a900460ff1681565b60006109b18261128d565b9050919050565b60008073ffffffffffffffffffffffffffffffffffffffff168273ffffffffffffffffffffffffffffffffffffffff1603610a2b5760006040517f89c62b64000000000000000000000000000000000000000000000000000000008152600401610a22919061238b565b60405180910390fd5b600360008373ffffffffffffffffffffffffffffffffffffffff1673ffffffffffffffffffffffffffffffffffffffff168152602001908152602001600020549050919050565b610a7a611586565b610a84600061160d565b565b610a8e611586565b60004790506000610a9d610b4a565b73ffffffffffffffffffffffffffffffffffffffff1682604051610ac090612b9c565b60006040518083038185875af1925050503d8060008114610afd576040519150601f19603f3d011682016040523d82523d6000602084013e610b02565b606091505b5050905080610b46576040517f08c379a0000000000000000000000000000000000000000000000000000000008152600401610b3d90612bfd565b60405180910390fd5b5050565b6000600660009054906101000a900473ffffffffffffffffffffffffffffffffffffffff16905090565b600a81565b606060018054610b8890612839565b80601f0160208091040260200160405190810160405280929190818152602001828054610bb490612839565b8015610c015780601f10610bd657610100808354040283529160200191610c01565b820191906000526020600020905b815481529060010190602001808311610be457829003601f168201915b5050505050905090565b600b8054610c1890612839565b80601f0160208091040260200160405190810160405280929190818152602001828054610c4490612839565b8015610c915780601f10610c6657610100808354040283529160200191610c91565b820191906000526020600020905b815481529060010190602001808311610c7457829003601f168201915b505050505081565b60075481565b600860009054906101000a900460ff16610cee576040517f08c379a0000000000000000000000000000000000000000000000000000000008152600401610ce590612c69565b60405180910390fd5b600a811115610d32576040517f08c379a0000000000000000000000000000000000000000000000000000000008152600401610d2990612cfb565b60405180910390fd5b600a81600a60003373ffffffffffffffffffffffffffffffffffffffff1673ffffffffffffffffffffffffffffffffffffffff16815260200190815260200160002054610d7f9190612d4a565b1115610dc0576040517f08c379a0000000000000000000000000000000000000000000000000000000008152600401610db790612dca565b60405180910390fd5b600060095490506127108282610dd69190612d4a565b1115610e17576040517f08c379a0000000000000000000000000000000000000000000000000000000008152600401610e0e90612e36565b60405180910390fd5b3460075483610e269190612e56565b1115610e67576040517f08c379a0000000000000000000000000000000000000000000000000000000008152600401610e5e90612f0a565b60405180910390fd5b6000600190505b828111610e9d57610e8a338284610e859190612d4a565b6116d3565b8080610e9590612f2a565b915050610e6e565b5081600a60003373ffffffffffffffffffffffffffffffffffffffff1673ffffffffffffffffffffffffffffffffffffffff1681526020019081526020016000206000828254610eed9190612d4a565b925050819055508160096000828254610f069190612d4a565b925050819055505050565b610f23610f1c611352565b83836116f1565b5050565b6000803390506000600a60008373ffffffffffffffffffffffffffffffffffffffff1673ffffffffffffffffffffffffffffffffffffffff168152602001908152602001600020549050809250505090565b610f84848484610822565b610f9084848484611860565b50505050565b600c8054610fa390612839565b80601f0160208091040260200160405190810160405280929190818152602001828054610fcf90612839565b801561101c5780601f10610ff15761010080835404028352916020019161101c565b820191906000526020600020905b815481529060010190602001808311610fff57829003601f168201915b505050505081565b60606000611031836109a6565b9050600073ffffffffffffffffffffffffffffffffffffffff168173ffffffffffffffffffffffffffffffffffffffff16036110a2576040517f08c379a000000000000000000000000000000000000000000000000000000000815260040161109990612fe4565b60405180910390fd5b60006110ac611a17565b905060008151116110cc57604051806020016040528060008152506110fa565b806110d685611aa9565b600c6040516020016110ea939291906130c3565b6040516020818303038152906040525b92505050919050565b6000600560008473ffffffffffffffffffffffffffffffffffffffff1673ffffffffffffffffffffffffffffffffffffffff16815260200190815260200160002060008373ffffffffffffffffffffffffffffffffffffffff1673ffffffffffffffffffffffffffffffffffffffff16815260200190815260200160002060009054906101000a900460ff16905092915050565b61119f611586565b600073ffffffffffffffffffffffffffffffffffffffff168173ffffffffffffffffffffffffffffffffffffffff16036112115760006040517f1e4fbdf7000000000000000000000000000000000000000000000000000000008152600401611208919061238b565b60405180910390fd5b61121a8161160d565b50565b61271081565b60007f01ffc9a7000000000000000000000000000000000000000000000000000000007bffffffffffffffffffffffffffffffffffffffffffffffffffffffff1916827bffffffffffffffffffffffffffffffffffffffffffffffffffffffff1916149050919050565b60008061129983611b77565b9050600073ffffffffffffffffffffffffffffffffffffffff168173ffffffffffffffffffffffffffffffffffffffff160361130c57826040517f7e2732890000000000000000000000000000000000000000000000000000000081526004016113039190612421565b60405180910390fd5b80915050919050565b60006004600083815260200190815260200160002060009054906101000a900473ffffffffffffffffffffffffffffffffffffffff169050919050565b600033905090565b6113678383836001611bb4565b505050565b60008061137884611b77565b9050600073ffffffffffffffffffffffffffffffffffffffff168373ffffffffffffffffffffffffffffffffffffffff16146113ba576113b9818486611d79565b5b600073ffffffffffffffffffffffffffffffffffffffff168173ffffffffffffffffffffffffffffffffffffffff161461144b576113fc600085600080611bb4565b6001600360008373ffffffffffffffffffffffffffffffffffffffff1673ffffffffffffffffffffffffffffffffffffffff168152602001908152602001600020600082825403925050819055505b600073ffffffffffffffffffffffffffffffffffffffff168573ffffffffffffffffffffffffffffffffffffffff16146114ce576001600360008773ffffffffffffffffffffffffffffffffffffffff1673ffffffffffffffffffffffffffffffffffffffff168152602001908152602001600020600082825401925050819055505b846002600086815260200190815260200160002060006101000a81548173ffffffffffffffffffffffffffffffffffffffff021916908373ffffffffffffffffffffffffffffffffffffffff160217905550838573ffffffffffffffffffffffffffffffffffffffff168273ffffffffffffffffffffffffffffffffffffffff167fddf252ad1be2c89b69c2b068fc378daa952ba7f163c4a11628f55a4df523b3ef60405160405180910390a4809150509392505050565b61158e611352565b73ffffffffffffffffffffffffffffffffffffffff166115ac610b4a565b73ffffffffffffffffffffffffffffffffffffffff161461160b576115cf611352565b6040517f118cdaa7000000000000000000000000000000000000000000000000000000008152600401611602919061238b565b60405180910390fd5b565b6000600660009054906101000a900473ffffffffffffffffffffffffffffffffffffffff16905081600660006101000a81548173ffffffffffffffffffffffffffffffffffffffff021916908373ffffffffffffffffffffffffffffffffffffffff1602179055508173ffffffffffffffffffffffffffffffffffffffff168173ffffffffffffffffffffffffffffffffffffffff167f8be0079c531659141344cd1fd0a4f28419497f9722a3daafe3b4186f6b6457e060405160405180910390a35050565b6116ed828260405180602001604052806000815250611e3d565b5050565b600073ffffffffffffffffffffffffffffffffffffffff168273ffffffffffffffffffffffffffffffffffffffff160361176257816040517f5b08ba18000000000000000000000000000000000000000000000000000000008152600401611759919061238b565b60405180910390fd5b80600560008573ffffffffffffffffffffffffffffffffffffffff1673ffffffffffffffffffffffffffffffffffffffff16815260200190815260200160002060008473ffffffffffffffffffffffffffffffffffffffff1673ffffffffffffffffffffffffffffffffffffffff16815260200190815260200160002060006101000a81548160ff0219169083151502179055508173ffffffffffffffffffffffffffffffffffffffff168373ffffffffffffffffffffffffffffffffffffffff167f17307eab39ab6107e8899845ad3d59bd9653f200f220920489ca2b5937696c3183604051611853919061221a565b60405180910390a3505050565b60008373ffffffffffffffffffffffffffffffffffffffff163b1115611a11578273ffffffffffffffffffffffffffffffffffffffff1663150b7a026118a4611352565b8685856040518563ffffffff1660e01b81526004016118c69493929190613149565b6020604051808303816000875af192505050801561190257506040513d601f19601f820116820180604052508101906118ff91906131aa565b60015b611986573d8060008114611932576040519150601f19603f3d011682016040523d82523d6000602084013e611937565b606091505b50600081510361197e57836040517f64a0ae92000000000000000000000000000000000000000000000000000000008152600401611975919061238b565b60405180910390fd5b805181602001fd5b63150b7a0260e01b7bffffffffffffffffffffffffffffffffffffffffffffffffffffffff1916817bffffffffffffffffffffffffffffffffffffffffffffffffffffffff191614611a0f57836040517f64a0ae92000000000000000000000000000000000000000000000000000000008152600401611a06919061238b565b60405180910390fd5b505b50505050565b6060600b8054611a2690612839565b80601f0160208091040260200160405190810160405280929190818152602001828054611a5290612839565b8015611a9f5780601f10611a7457610100808354040283529160200191611a9f565b820191906000526020600020905b815481529060010190602001808311611a8257829003601f168201915b5050505050905090565b606060006001611ab884611e59565b01905060008167ffffffffffffffff811115611ad757611ad6612499565b5b6040519080825280601f01601f191660200182016040528015611b095781602001600182028036833780820191505090505b509050600082602001820190505b600115611b6c578080600190039150507f3031323334353637383961626364656600000000000000000000000000000000600a86061a8153600a8581611b6057611b5f6131d7565b5b04945060008503611b17575b819350505050919050565b60006002600083815260200190815260200160002060009054906101000a900473ffffffffffffffffffffffffffffffffffffffff169050919050565b8080611bed5750600073ffffffffffffffffffffffffffffffffffffffff168273ffffffffffffffffffffffffffffffffffffffff1614155b15611d21576000611bfd8461128d565b9050600073ffffffffffffffffffffffffffffffffffffffff168373ffffffffffffffffffffffffffffffffffffffff1614158015611c6857508273ffffffffffffffffffffffffffffffffffffffff168173ffffffffffffffffffffffffffffffffffffffff1614155b8015611c7b5750611c798184611103565b155b15611cbd57826040517fa9fbf51f000000000000000000000000000000000000000000000000000000008152600401611cb4919061238b565b60405180910390fd5b8115611d1f57838573ffffffffffffffffffffffffffffffffffffffff168273ffffffffffffffffffffffffffffffffffffffff167f8c5be1e5ebec7d5bd14f71427d1e84f3dd0314c0f7b2291e5b200ac8c7c3b92560405160405180910390a45b505b836004600085815260200190815260200160002060006101000a81548173ffffffffffffffffffffffffffffffffffffffff021916908373ffffffffffffffffffffffffffffffffffffffff16021790555050505050565b611d84838383611fac565b611e3857600073ffffffffffffffffffffffffffffffffffffffff168373ffffffffffffffffffffffffffffffffffffffff1603611df957806040517f7e273289000000000000000000000000000000000000000000000000000000008152600401611df09190612421565b60405180910390fd5b81816040517f177e802f000000000000000000000000000000000000000000000000000000008152600401611e2f929190613206565b60405180910390fd5b505050565b611e47838361206d565b611e546000848484611860565b505050565b600080600090507a184f03e93ff9f4daa797ed6e38ed64bf6a1f0100000000000000008310611eb7577a184f03e93ff9f4daa797ed6e38ed64bf6a1f0100000000000000008381611ead57611eac6131d7565b5b0492506040810190505b6d04ee2d6d415b85acef81000000008310611ef4576d04ee2d6d415b85acef81000000008381611eea57611ee96131d7565b5b0492506020810190505b662386f26fc100008310611f2357662386f26fc100008381611f1957611f186131d7565b5b0492506010810190505b6305f5e1008310611f4c576305f5e1008381611f4257611f416131d7565b5b0492506008810190505b6127108310611f71576127108381611f6757611f666131d7565b5b0492506004810190505b60648310611f945760648381611f8a57611f896131d7565b5b0492506002810190505b600a8310611fa3576001810190505b80915050919050565b60008073ffffffffffffffffffffffffffffffffffffffff168373ffffffffffffffffffffffffffffffffffffffff161415801561206457508273ffffffffffffffffffffffffffffffffffffffff168473ffffffffffffffffffffffffffffffffffffffff16148061202557506120248484611103565b5b8061206357508273ffffffffffffffffffffffffffffffffffffffff1661204b83611315565b73ffffffffffffffffffffffffffffffffffffffff16145b5b90509392505050565b600073ffffffffffffffffffffffffffffffffffffffff168273ffffffffffffffffffffffffffffffffffffffff16036120df5760006040517f64a0ae920000000000000000000000000000000000000000000000000000000081526004016120d6919061238b565b60405180910390fd5b60006120ed8383600061136c565b9050600073ffffffffffffffffffffffffffffffffffffffff168173ffffffffffffffffffffffffffffffffffffffff16146121615760006040517f73c6ac6e000000000000000000000000000000000000000000000000000000008152600401612158919061238b565b60405180910390fd5b505050565b6000604051905090565b600080fd5b600080fd5b60007fffffffff0000000000000000000000000000000000000000000000000000000082169050919050565b6121af8161217a565b81146121ba57600080fd5b50565b6000813590506121cc816121a6565b92915050565b6000602082840312156121e8576121e7612170565b5b60006121f6848285016121bd565b91505092915050565b60008115159050919050565b612214816121ff565b82525050565b600060208201905061222f600083018461220b565b92915050565b600081519050919050565b600082825260208201905092915050565b60005b8381101561226f578082015181840152602081019050612254565b60008484015250505050565b6000601f19601f8301169050919050565b600061229782612235565b6122a18185612240565b93506122b1818560208601612251565b6122ba8161227b565b840191505092915050565b600060208201905081810360008301526122df818461228c565b905092915050565b6000819050919050565b6122fa816122e7565b811461230557600080fd5b50565b600081359050612317816122f1565b92915050565b60006020828403121561233357612332612170565b5b600061234184828501612308565b91505092915050565b600073ffffffffffffffffffffffffffffffffffffffff82169050919050565b60006123758261234a565b9050919050565b6123858161236a565b82525050565b60006020820190506123a0600083018461237c565b92915050565b6123af8161236a565b81146123ba57600080fd5b50565b6000813590506123cc816123a6565b92915050565b600080604083850312156123e9576123e8612170565b5b60006123f7858286016123bd565b925050602061240885828601612308565b9150509250929050565b61241b816122e7565b82525050565b60006020820190506124366000830184612412565b92915050565b60008060006060848603121561245557612454612170565b5b6000612463868287016123bd565b9350506020612474868287016123bd565b925050604061248586828701612308565b9150509250925092565b600080fd5b600080fd5b7f4e487b7100000000000000000000000000000000000000000000000000000000600052604160045260246000fd5b6124d18261227b565b810181811067ffffffffffffffff821117156124f0576124ef612499565b5b80604052505050565b6000612503612166565b905061250f82826124c8565b919050565b600067ffffffffffffffff82111561252f5761252e612499565b5b6125388261227b565b9050602081019050919050565b82818337600083830152505050565b600061256761256284612514565b6124f9565b90508281526020810184848401111561258357612582612494565b5b61258e848285612545565b509392505050565b600082601f8301126125ab576125aa61248f565b5b81356125bb848260208601612554565b91505092915050565b6000602082840312156125da576125d9612170565b5b600082013567ffffffffffffffff8111156125f8576125f7612175565b5b61260484828501612596565b91505092915050565b60006020828403121561262357612622612170565b5b6000612631848285016123bd565b91505092915050565b612643816121ff565b811461264e57600080fd5b50565b6000813590506126608161263a565b92915050565b6000806040838503121561267d5761267c612170565b5b600061268b858286016123bd565b925050602061269c85828601612651565b9150509250929050565b600067ffffffffffffffff8211156126c1576126c0612499565b5b6126ca8261227b565b9050602081019050919050565b60006126ea6126e5846126a6565b6124f9565b90508281526020810184848401111561270657612705612494565b5b612711848285612545565b509392505050565b600082601f83011261272e5761272d61248f565b5b813561273e8482602086016126d7565b91505092915050565b6000806000806080858703121561276157612760612170565b5b600061276f878288016123bd565b9450506020612780878288016123bd565b935050604061279187828801612308565b925050606085013567ffffffffffffffff8111156127b2576127b1612175565b5b6127be87828801612719565b91505092959194509250565b600080604083850312156127e1576127e0612170565b5b60006127ef858286016123bd565b9250506020612800858286016123bd565b9150509250929050565b7f4e487b7100000000000000000000000000000000000000000000000000000000600052602260045260246000fd5b6000600282049050600182168061285157607f821691505b6020821081036128645761286361280a565b5b50919050565b600060608201905061287f600083018661237c565b61288c6020830185612412565b612899604083018461237c565b949350505050565b60008190508160005260206000209050919050565b60006020601f8301049050919050565b600082821b905092915050565b6000600883026129037fffffffffffffffffffffffffffffffffffffffffffffffffffffffffffffffff826128c6565b61290d86836128c6565b95508019841693508086168417925050509392505050565b6000819050919050565b600061294a612945612940846122e7565b612925565b6122e7565b9050919050565b6000819050919050565b6129648361292f565b61297861297082612951565b8484546128d3565b825550505050565b600090565b61298d612980565b61299881848461295b565b505050565b5b818110156129bc576129b1600082612985565b60018101905061299e565b5050565b601f821115612a01576129d2816128a1565b6129db846128b6565b810160208510156129ea578190505b6129fe6129f6856128b6565b83018261299d565b50505b505050565b600082821c905092915050565b6000612a2460001984600802612a06565b1980831691505092915050565b6000612a3d8383612a13565b9150826002028217905092915050565b612a5682612235565b67ffffffffffffffff811115612a6f57612a6e612499565b5b612a798254612839565b612a848282856129c0565b600060209050601f831160018114612ab75760008415612aa5578287015190505b612aaf8582612a31565b865550612b17565b601f198416612ac5866128a1565b60005b82811015612aed57848901518255600182019150602085019450602081019050612ac8565b86831015612b0a5784890151612b06601f891682612a13565b8355505b6001600288020188555050505b505050505050565b600081905092915050565b7f307834383762323346396333316439463061303434413233613837313635633260008201527f3664463538656166663300000000000000000000000000000000000000000000602082015250565b6000612b86602a83612b1f565b9150612b9182612b2a565b602a82019050919050565b6000612ba782612b79565b9150819050919050565b7f5472616e73666572206661696c65640000000000000000000000000000000000600082015250565b6000612be7600f83612240565b9150612bf282612bb1565b602082019050919050565b60006020820190508181036000830152612c1681612bda565b9050919050565b7f5468652053616c65206973207061757365640000000000000000000000000000600082015250565b6000612c53601283612240565b9150612c5e82612c1d565b602082019050919050565b60006020820190508181036000830152612c8281612c46565b9050919050565b7f596f752063616e206f6e6c79206d696e742061206d6178696d756d206f66203160008201527f30204e46547320706572207472616e73616374696f6e2e000000000000000000602082015250565b6000612ce5603783612240565b9150612cf082612c89565b604082019050919050565b60006020820190508181036000830152612d1481612cd8565b9050919050565b7f4e487b7100000000000000000000000000000000000000000000000000000000600052601160045260246000fd5b6000612d55826122e7565b9150612d60836122e7565b9250828201905080821115612d7857612d77612d1b565b5b92915050565b7f596f752063616e206f6e6c79206d696e74203130207065722077616c6c657400600082015250565b6000612db4601f83612240565b9150612dbf82612d7e565b602082019050919050565b60006020820190508181036000830152612de381612da7565b9050919050565b7f4578636565647320604d41585f544f4b454e5360000000000000000000000000600082015250565b6000612e20601483612240565b9150612e2b82612dea565b602082019050919050565b60006020820190508181036000830152612e4f81612e13565b9050919050565b6000612e61826122e7565b9150612e6c836122e7565b9250828202612e7a816122e7565b91508282048414831517612e9157612e90612d1b565b5b5092915050565b7f496e73756666696369656e742066756e64732e20796f75206e656564206d6f7260008201527f6520455448210000000000000000000000000000000000000000000000000000602082015250565b6000612ef4602683612240565b9150612eff82612e98565b604082019050919050565b60006020820190508181036000830152612f2381612ee7565b9050919050565b6000612f35826122e7565b91507fffffffffffffffffffffffffffffffffffffffffffffffffffffffffffffffff8203612f6757612f66612d1b565b5b600182019050919050565b7f4552433732314d657461646174613a2055524920717565727920666f72206e6f60008201527f6e6578697374656e7420746f6b656e0000000000000000000000000000000000602082015250565b6000612fce602f83612240565b9150612fd982612f72565b604082019050919050565b60006020820190508181036000830152612ffd81612fc1565b9050919050565b600081905092915050565b600061301a82612235565b6130248185613004565b9350613034818560208601612251565b80840191505092915050565b6000815461304d81612839565b6130578186613004565b945060018216600081146130725760018114613087576130ba565b60ff19831686528115158202860193506130ba565b613090856128a1565b60005b838110156130b257815481890152600182019150602081019050613093565b838801955050505b50505092915050565b60006130cf828661300f565b91506130db828561300f565b91506130e78284613040565b9150819050949350505050565b600081519050919050565b600082825260208201905092915050565b600061311b826130f4565b61312581856130ff565b9350613135818560208601612251565b61313e8161227b565b840191505092915050565b600060808201905061315e600083018761237c565b61316b602083018661237c565b6131786040830185612412565b818103606083015261318a8184613110565b905095945050505050565b6000815190506131a4816121a6565b92915050565b6000602082840312156131c0576131bf612170565b5b60006131ce84828501613195565b91505092915050565b7f4e487b7100000000000000000000000000000000000000000000000000000000600052601260045260246000fd5b600060408201905061321b600083018561237c565b6132286020830184612412565b939250505056fea264697066735822122002189e8d219f65178a519023268aacdffcef040ace62055b37a80258b04418f764736f6c6343000818003368747470733a2f2f676174657761792e70696e6174612e636c6f75642f697066732f516d5234574c4d71583277716f34576a4359665456696655434463457147345766366d643875616474426676354d",
  "linkReferences": {},
  "deployedLinkReferences": {}
}